:020000040800F2
:100000000018002059040008A9040008A9040008E9
:10001000A9040008A9040008A904000800000000C1
:10002000000000000000000000000000A90400081B
:10003000A904000800000000A9040008A9040008A1
:10004000A9040008A9040008A9040008A9040008DC
:10005000A9040008A9040008A9040008A9040008CC
:10006000A9040008A9040008A9040008A9040008BC
:10007000A9040008A9040008A9040008A9040008AC
:10008000A9040008A9040008A9040008A90400089C
:10009000A9040008A9040008A9040008A90400088C
:1000A000A9040008A9040008A9040008A90400087C
:1000B000A9040008A9040008A9040008A90400086C
:1000C000A9040008A9040008A9040008A90400085C
:1000D000A9040008A9040008A9040008A90400084C
:1000E000A9040008A9040008A9040008A90400083C
:1000F000A9040008A9040008A9040008A90400082C
:10010000A9040008A9040008A9040008A90400081B
:10011000A9040008A9040008A9040008A90400080B
:10012000A9040008A9040008A9040008A9040008FB
:1001300010B5054C237833B9044B13B10448AFF321
:1001400000800123237010BD00000020000000008B
:100150001406000808B5034B1BB103490348AFF36D
:10016000008008BD00000000040000201406000804
:1001700080B582B000AF0023FB8009E0FB88D9B2D4
:10018000022300220E4800F090F9FB880133FB8027
:10019000FB88032BF2D90423FB8009E0FB88D9B24A
:1001A00000230322064800F080F9FB880133FB801E
:1001B000FB88072BF2D900BF0837BD4680BD00BFC2
:1001C000000C014080B582B000AF0023FB7147E016
:1001D000274BDB68264A23F0F003D360FB79043316
:1001E000DBB201221946224800F0BAF90023BB71A4
:1001F00030E000211E4800F0D7F90346002B26D03E
:10020000FB79002B1BD1BB79002B03D1202000F000
:10021000B3F813E0BB79012B03D1342000F0ACF824
:100220000CE0BB79022B03D1312000F0A5F805E0EA
:10023000BB79032B02D1302000F09EF800BF00BF35
:1002400000210B4800F0B0F90346002BF8D1BB7930
:100250000133BB71BB79032BCBD9FB790133FB7124
:10026000FB79032BB4D900BF0837BD4680BD00BF62
:10027000000C014080B483B000AF00237B6002E03B
:100280007B6801337B607B68B3F5FA7FF8DB0E4B4C
:100290001B781A46012303FA02F20C4B1B681A6101
:1002A000094B1B781A46012393401A04074B1B681D
:1002B0001A61064B1B684FF47F021A6100BF0C37AE
:1002C000BD4680BC704700BF1C00002020000020FD
:1002D00080B584B000AF78600B46FB701346BB70EE
:1002E000104ABB781370104A7B6813600023FB60D0
:1002F00009E0FB68D9B200230122786800F0D5F844
:10030000FB680133FB60FB78FA689A42F1DB01215C
:10031000012000F00BF800F023F800BF1037BD46B5
:1003200080BD00BF1C0000202000002080B582B0EE
:1003300000AF03460A46FB711346BB71FB795B00B5
:1003400043F00C02BB791A43044B1B68DA60FFF7D9
:1003500091FF00BF0837BD4680BD00BF20000020D0
:1003600080B500AF034B1B680122DA60FFF782FF04
:1003700000BF80BD2000002080B582B000AF0346E2
:10038000FB71FB7943F40072044B1B68DA60FFF7E2
:1003900071FF00BF0837BD4680BD00BF20000020B0
:1003A00080B584B000AF78600023FB6009E0FB6893
:1003B0005A1CFA601A467B6813441B781846FFF7EC
:1003C000DBFFFB687A6813441B78002BEFD100BF7A
:1003D0001037BD4680BD000080B582B000AF034637
:1003E000FB71FB7963F07F03DAB2044B1B68DA60C0
:1003F000FFF740FF00BF0837BD4680BD200000204A
:1004000080B500AF104B9B690F4A43F00403936122
:100410000D4B9B690C4A43F0080393610A220B21A0
:100420000A48FFF755FF012300220021084800F089
:100430003CF84020FFF7D0FF0648FFF7B1FFFFF779
:1004400097FEFFF7BFFEFCE70010024000080140E6
:10045000000C01402C0600080D488546AFF30080D3
:100460000C480D490D4A002302E0D458C45004330F
:10047000C4188C42F9D30A4A0A4C002301E01360E5
:100480000432A242FBD300F0A1F8FFF7B9FFFEE768
:100490000018002000000020000000203C0600089A
:1004A0000000002024000020FEE780B485B000AFEB
:1004B0007860084611461A460346FB700B46BB702F
:1004C00013467B700023FB72FB78072B02D87B68F6
:1004D000FB6007E07B680433FB60FB78083BFB7044
:1004E0000123FB72FB681B68FA7892000F2101FA66
:1004F00002F2D2431A40FB681A60BB78002B1DD170
:100500007B78032B1AD1FB681B68BA7842F008028B
:10051000D2B21146FA78920001FA02F21A43FB684D
:100520001A607B68DB68F978FA7AD2000A44012104
:1005300001FA02F21A437B68DA600CE0FB681B6880
:100540007A789100BA781143FA78920001FA02F2AF
:100550001A43FB681A6000BF1437BD4680BC704761
:1005600080B483B000AF78600B46FB701346BB705D
:10057000BB78002B0AD17B68DB68FA78012101FA8D
:1005800002F2D2431A407B68DA6008E07B68DB68DD
:10059000FA78012101FA02F21A437B68DA6000BF9F
:1005A0000C37BD4680BC704780B483B000AF786024
:1005B0000B46FB707B689A68FB7822FA03F303F022
:1005C000010318460C37BD4680BC704770B5002546
:1005D0000C4E0D4CA41BA410A54209D100F01AF832
:1005E00000250A4E0A4CA41BA410A54205D170BDDB
:1005F00056F8253098470135EEE756F825309847EC
:100600000135F2E734060008340600083406000815
:1006100038060008F8B500BFF8BC08BC9E46704715
:0C062000F8B500BFF8BC08BC9E4670474F
:08062C004B6172696D000000D2
:040634005501000864
:040638003101000884
:040000050800045992
:00000001FF
