:100000000C9434000C943E000C943E000C943E0082
:100010000C943E000C943E000C943E000C943E0068
:100020000C943E000C943E000C943E000C941C0179
:100030000C943E000C943E000C943E000C943E0048
:100040000C943E000C943E000C943E000C943E0038
:100050000C943E000C943E000C943E000C943E0028
:100060000C943E000C943E0011241FBECFEFD8E04C
:10007000DEBFCDBF0E948E000C94C3020C94000022
:10008000ECE7F0E0808180648083808182608083FF
:10009000EAE7F0E08081876880830895EAE7F0E08E
:1000A0008081806480838081809178009091790044
:1000B0000895F999FECF27B717BE92BD81BD60BDE7
:1000C0008FB384608FBB8FB382608FBB08958AB17A
:1000D00088618AB98BB188608BB984B1886084B932
:1000E00083E88093B00082E08093B10008958FB7D9
:1000F00080688FBFEFE6F0E08081826080830895A2
:100100000E94760103C085E60E9468010E944E00AD
:100110000197C397C0F70E94820108950FB6F89423
:10012000A8958091600088618093600010926000C3
:100130000FBE0E945C010E9440000E9467000E9466
:1001400077008BB180628BB98BB180688BB984B139
:10015000806884B9C7E6D0E00E944E0081504D9B74
:100160000CC0D13051F495B1906895B995B19F7795
:1001700095B991E0D9274D99FECF8832A8F5853100
:1001800020F190E044972FEF289FB001299F700D38
:100190001124072E000C880B990B0E94370220E0D7
:1001A00030E040EA51E40E9494010E94060260930C
:1001B000B30089E70E946801C93771F269E780E0FE
:1001C00090E00E945900C9E7C7CF87E60E94680106
:1001D0001092B300C73609F4BFCF67E680E090E025
:1001E0000E945900C7E6B8CF9FEF9093B3008233C7
:1001F000C0F482E70E946801C23731F062E780E014
:1002000090E00E945900C2E74D9BA6CF85B180685F
:1002100085B985B18F7785B981E0D8274D99FECF13
:100220009BCFC13631F065E680E090E00E94590036
:10023000C1E60E94800090CF1F920F920FB60F92DE
:1002400011242F933F934F935F936F937F938F93DB
:100250009F93AF93BF93EF93FF9303C081E60E94F8
:1002600068018091C600813641F08091C00086FF10
:10027000F5CF03C081E60E9468010E946E018B36B3
:10028000C9F761E680E090E00E9459008FB780686E
:100290008FBF0E948501FF91EF91BF91AF919F9118
:1002A0008F917F916F915F914F913F912F910F901F
:1002B0000FBE0F901F9018951092C50087E680938F
:1002C000C40088E18093C1008EE08093C20008954D
:1002D0009091C00095FD8093C60008958091C00064
:1002E00088231CF48091C60008950895E1E8F0E0A9
:1002F00080818560808384EB9AE19093890080936C
:10030000880008951092810008958FB78F778FBF6E
:10031000A89598E088E10FB6F894A89580936000BE
:100320000FBE9093600008950E94A8010C9489026A
:100330000E94820258F00E947B0240F029F45F3F45
:1003400029F00C94720251110C94BD020C947802A5
:100350000E949A0268F39923B1F3552391F3951BF8
:10036000550BBB27AA2762177307840738F09F5FD6
:100370005F4F220F331F441FAA1FA9F335D00E2E43
:100380003AF0E0E832D091505040E695001CCAF7B0
:100390002BD0FE2F29D0660F771F881FBB1F261773
:1003A00037074807AB07B0E809F0BB0B802DBF014A
:1003B000FF2793585F4F3AF09E3F510578F00C9419
:1003C00072020C94BD025F3FE4F3983ED4F386952D
:1003D00077956795B795F7959F5FC9F7880F911D3A
:1003E0009695879597F90895E1E0660F771F881F26
:1003F000BB1F621773078407BA0720F0621B730BD9
:10040000840BBA0BEE1F88F7E09508950E94A202B4
:1004100088F09F5798F0B92F9927B751B0F0E1F0C5
:10042000660F771F881F991F1AF0BA95C9F714C075
:10043000B13091F00E94BC02B1E008950C94BC026E
:10044000672F782F8827B85F39F0B93FCCF38695AE
:1004500077956795B395D9F73EF49095809570950B
:1004600061957F4F8F4F9F4F0895E89409C097FB88
:100470003EF490958095709561957F4F8F4F9F4F7B
:100480009923A9F0F92F96E9BB279395F6958795BF
:1004900077956795B795F111F8CFFAF4BB0F11F482
:1004A00060FF1BC06F5F7F4F8F4F9F4F16C0882329
:1004B00011F096E911C0772321F09EE8872F762F5F
:1004C00005C0662371F096E8862F70E060E02AF0A0
:1004D0009A95660F771F881FDAF7880F969587958C
:1004E00097F9089597F99F6780E870E060E00895B4
:1004F0009FEF80EC089500240A941616170618063C
:100500000906089500240A94121613061406050617
:100510000895092E0394000C11F4882352F0BB0FA8
:1005200040F4BF2B11F460FF04C06F5F7F4F8F4F0B
:100530009F4F089557FD9058440F551F59F05F3F46
:1005400071F04795880F97FB991F61F09F3F79F0F5
:1005500087950895121613061406551FF2CF469577
:10056000F1DF08C0161617061806991FF1CF8695F9
:100570007105610508940895E894BB2766277727DD
:0A058000CB0197F90895F894FFCF1E
:00000001FF
