:100000000C9434000C9470000C9446000C94460040
:100010000C9446000C9446000C9446000C94460048
:100020000C9446000C9446000C9446000C94460038
:100030000C9446000C9417010C9446000C94460056
:100040000C9446000C9446000C9446000C94460018
:100050000C9446000C9446000C9446000C94460008
:100060000C9446000C94460011241FBECFEFD8E03C
:10007000DEBFCDBF21E0A0E0B1E001C01D92A23003
:10008000B207E1F70E94AE000C943B030C94000011
:10009000ECE7F0E0808180648083808182608083EF
:1000A000EAE7F0E08081876880830895EAE7F0E07E
:1000B0008081806480838081809178009091790034
:1000C00008958BB184608BB98FB780688FBFE9E6E4
:1000D000F0E08081836080838DB381608DBB089563
:1000E0001F920F920FB60F9211242F933F934F93AD
:1000F0005F936F937F938F939F93AF93BF93EF9390
:10010000FF938BE60E9490019BB188E089278BB911
:100110008CB381608CBBFF91EF91BF91AF919F91A8
:100120008F917F916F915F914F913F912F910F90A0
:100130000FBE0F901F9018958FB780688FBFEFE6A6
:10014000F0E080818160808308958BE60E949001B9
:100150008DB38E7F8DBB0E949C0008950E94840108
:100160000E9448000E9469010E9461000E9459019A
:1001700084B1806784B98AB180628AB98BEB90E0E0
:100180000E947F010E949701809301010E94560006
:10019000BC0180E090E00E94400220E030EC4FE79C
:1001A00054E40E949F0120E030E04FE753E40E94B6
:1001B000CE020E9411026093B30080910101873644
:1001C00059F028F4813681F1853621F1DBCF823771
:1001D000B9F0893759F0D6CF85B1806185B985B13D
:1001E0008F7985B98BB18F7D8BB9CCCF85B180628A
:1001F00085B985B18F7A85B98BB18F7D8BB9C2CF27
:1002000085B1806485B985B18F7C85B98BB18F7DCF
:100210008BB9B8CF85B1806485B985B18F7C85B93C
:100220008BB180628BB9AECF0E94A500ABCF1F927D
:100230000F920FB60F9211242F933F934F935F931A
:100240006F937F938F939F93AF93BF93EF93FF939E
:10025000809100018B3F90F0EFE6F0E080818E7F8F
:1002600080838BB188608BB98BEB90E00E947F011B
:100270008DB381608DBB109200010AC08F5F8093A7
:1002800000018BB1877F8BB989EF90E00E947F01DD
:10029000FF91EF91BF91AF919F918F917F916F915E
:1002A0005F914F913F912F910F900FBE0F901F9034
:1002B00018958AB188618AB98BB188608BB984B18D
:1002C000886084B983E88093B00082E08093B100B5
:1002D000089584B1826084B982E8809380008AE1C5
:1002E0008093810083EC99E090938700809386004F
:1002F0008AEF90E090938B0080938A00089590930A
:1003000089008093880008951092C50087E6809345
:10031000C40088E18093C1008EE08093C2000895FC
:100320009091C00095FFFCCF8093C6000895809106
:10033000C00088231CF48091C600089508950E948F
:10034000B3010C9494020E948D0258F00E94860220
:1003500040F029F45F3F29F00C947D0251110C9478
:10036000C8020C9483020E94A50268F39923B1F39A
:10037000552391F3951B550BBB27AA2762177307CB
:10038000840738F09F5F5F4F220F331F441FAA1F5F
:10039000A9F335D00E2E3AF0E0E832D0915050401B
:1003A000E695001CCAF72BD0FE2F29D0660F771FC9
:1003B000881FBB1F261737074807AB07B0E809F0AF
:1003C000BB0B802DBF01FF2793585F4F3AF09E3F34
:1003D000510578F00C947D020C94C8025F3FE4F361
:1003E000983ED4F3869577956795B795F7959F5F77
:1003F000C9F7880F911D9695879597F90895E1E0C3
:10040000660F771F881FBB1F621773078407BA0721
:1004100020F0621B730B840BBA0BEE1F88F7E0957C
:1004200008950E94AD0288F09F5798F0B92F992740
:10043000B751B0F0E1F0660F771F881F991F1AF0CF
:10044000BA95C9F714C0B13091F00E94C702B1E06B
:1004500008950C94C702672F782F8827B85F39F06A
:10046000B93FCCF3869577956795B395D9F73EF468
:1004700090958095709561957F4F8F4F9F4F089510
:10048000E89409C097FB3EF490958095709561952E
:100490007F4F8F4F9F4F9923A9F0F92F96E9BB27E4
:1004A0009395F695879577956795B795F111F8CF60
:1004B000FAF4BB0F11F460FF1BC06F5F7F4F8F4FCB
:1004C0009F4F16C0882311F096E911C0772321F0C1
:1004D0009EE8872F762F05C0662371F096E8862F59
:1004E00070E060E02AF09A95660F771F881FDAF7B0
:1004F000880F9695879597F9089597F99F6780E8F3
:1005000070E060E008959FEF80EC089500240A9465
:100510001616170618060906089500240A941216DE
:100520001306140605060895092E0394000C11F411
:10053000882352F0BB0F40F4BF2B11F460FF04C0BE
:100540006F5F7F4F8F4F9F4F089557FD9058440F17
:10055000551F59F05F3F71F04795880F97FB991F22
:1005600061F09F3F79F087950895121613061406DF
:10057000551FF2CF4695F1DF08C01616170618066C
:10058000991FF1CF86957105610508940895E89447
:10059000BB2766277727CB0197F908950E94E102D0
:1005A0000C9494020E94860238F00E948D0220F082
:1005B000952311F00C947D020C94830211240C9469
:1005C000C8020E94A50270F3959FC1F3950F50E0F9
:1005D000551F629FF001729FBB27F00DB11D639FF5
:1005E000AA27F00DB11DAA1F649F6627B00DA11D9B
:1005F000661F829F2227B00DA11D621F739FB00D41
:10060000A11D621F839FA00D611D221F749F3327B0
:10061000A00D611D231F849F600D211D822F762F49
:100620006A2F11249F5750409AF0F1F088234AF026
:10063000EE0FFF1FBB1F661F771F881F9150504092
:10064000A9F79E3F510580F00C947D020C94C802DE
:100650005F3FE4F3983ED4F3869577956795B79519
:10066000F795E7959F5FC1F7FE2B880F911D969533
:0A067000879597F90895F894FFCFDD
:00000001FF
